{
  "contractName": "ovote",
  "abi": [
    {
      "inputs": [
        {
          "internalType": "string",
          "name": "_title",
          "type": "string"
        },
        {
          "internalType": "string",
          "name": "_description",
          "type": "string"
        },
        {
          "internalType": "bool",
          "name": "_whiteListed",
          "type": "bool"
        },
        {
          "internalType": "address[]",
          "name": "_whiteListedAddrs",
          "type": "address[]"
        },
        {
          "internalType": "string[]",
          "name": "_anstitle",
          "type": "string[]"
        },
        {
          "internalType": "string[]",
          "name": "_voteN",
          "type": "string[]"
        }
      ],
      "name": "appendSurvey",
      "outputs": [],
      "stateMutability": "nonpayable",
      "type": "function"
    },
    {
      "inputs": [],
      "name": "viewSurveys",
      "outputs": [
        {
          "components": [
            {
              "internalType": "uint256",
              "name": "id",
              "type": "uint256"
            },
            {
              "internalType": "string",
              "name": "title",
              "type": "string"
            },
            {
              "internalType": "string",
              "name": "description",
              "type": "string"
            },
            {
              "internalType": "address",
              "name": "owner",
              "type": "address"
            },
            {
              "internalType": "string[][]",
              "name": "answers",
              "type": "string[][]"
            },
            {
              "internalType": "bool",
              "name": "whiteListed",
              "type": "bool"
            },
            {
              "internalType": "address[]",
              "name": "whiteListedAddrs",
              "type": "address[]"
            },
            {
              "internalType": "address[]",
              "name": "voted",
              "type": "address[]"
            }
          ],
          "internalType": "struct ovote.survey[]",
          "name": "",
          "type": "tuple[]"
        }
      ],
      "stateMutability": "view",
      "type": "function",
      "constant": true
    },
    {
      "inputs": [
        {
          "internalType": "address",
          "name": "_user",
          "type": "address"
        }
      ],
      "name": "viewSurveysByAddr",
      "outputs": [
        {
          "components": [
            {
              "internalType": "uint256",
              "name": "id",
              "type": "uint256"
            },
            {
              "internalType": "string",
              "name": "title",
              "type": "string"
            },
            {
              "internalType": "string",
              "name": "description",
              "type": "string"
            },
            {
              "internalType": "address",
              "name": "owner",
              "type": "address"
            },
            {
              "internalType": "string[][]",
              "name": "answers",
              "type": "string[][]"
            },
            {
              "internalType": "bool",
              "name": "whiteListed",
              "type": "bool"
            },
            {
              "internalType": "address[]",
              "name": "whiteListedAddrs",
              "type": "address[]"
            },
            {
              "internalType": "address[]",
              "name": "voted",
              "type": "address[]"
            }
          ],
          "internalType": "struct ovote.survey[]",
          "name": "",
          "type": "tuple[]"
        }
      ],
      "stateMutability": "view",
      "type": "function",
      "constant": true
    },
    {
      "inputs": [
        {
          "internalType": "address",
          "name": "_owner",
          "type": "address"
        }
      ],
      "name": "viewSurveysByOwner",
      "outputs": [
        {
          "components": [
            {
              "internalType": "uint256",
              "name": "id",
              "type": "uint256"
            },
            {
              "internalType": "string",
              "name": "title",
              "type": "string"
            },
            {
              "internalType": "string",
              "name": "description",
              "type": "string"
            },
            {
              "internalType": "address",
              "name": "owner",
              "type": "address"
            },
            {
              "internalType": "string[][]",
              "name": "answers",
              "type": "string[][]"
            },
            {
              "internalType": "bool",
              "name": "whiteListed",
              "type": "bool"
            },
            {
              "internalType": "address[]",
              "name": "whiteListedAddrs",
              "type": "address[]"
            },
            {
              "internalType": "address[]",
              "name": "voted",
              "type": "address[]"
            }
          ],
          "internalType": "struct ovote.survey[]",
          "name": "",
          "type": "tuple[]"
        }
      ],
      "stateMutability": "view",
      "type": "function",
      "constant": true
    },
    {
      "inputs": [
        {
          "internalType": "uint256",
          "name": "_id",
          "type": "uint256"
        }
      ],
      "name": "viewSurveyByID",
      "outputs": [
        {
          "components": [
            {
              "internalType": "uint256",
              "name": "id",
              "type": "uint256"
            },
            {
              "internalType": "string",
              "name": "title",
              "type": "string"
            },
            {
              "internalType": "string",
              "name": "description",
              "type": "string"
            },
            {
              "internalType": "address",
              "name": "owner",
              "type": "address"
            },
            {
              "internalType": "string[][]",
              "name": "answers",
              "type": "string[][]"
            },
            {
              "internalType": "bool",
              "name": "whiteListed",
              "type": "bool"
            },
            {
              "internalType": "address[]",
              "name": "whiteListedAddrs",
              "type": "address[]"
            },
            {
              "internalType": "address[]",
              "name": "voted",
              "type": "address[]"
            }
          ],
          "internalType": "struct ovote.survey",
          "name": "",
          "type": "tuple"
        }
      ],
      "stateMutability": "view",
      "type": "function",
      "constant": true
    },
    {
      "inputs": [
        {
          "internalType": "address",
          "name": "_user",
          "type": "address"
        },
        {
          "internalType": "uint256",
          "name": "_survey",
          "type": "uint256"
        }
      ],
      "name": "checkPermission",
      "outputs": [
        {
          "internalType": "int256",
          "name": "",
          "type": "int256"
        }
      ],
      "stateMutability": "view",
      "type": "function",
      "constant": true
    },
    {
      "inputs": [
        {
          "internalType": "uint256",
          "name": "_id",
          "type": "uint256"
        },
        {
          "internalType": "uint256",
          "name": "_ansId",
          "type": "uint256"
        }
      ],
      "name": "vote",
      "outputs": [],
      "stateMutability": "nonpayable",
      "type": "function"
    },
    {
      "inputs": [
        {
          "internalType": "address[]",
          "name": "_users",
          "type": "address[]"
        },
        {
          "internalType": "address",
          "name": "_user",
          "type": "address"
        }
      ],
      "name": "isIn",
      "outputs": [
        {
          "internalType": "bool",
          "name": "",
          "type": "bool"
        }
      ],
      "stateMutability": "pure",
      "type": "function",
      "constant": true
    },
    {
      "inputs": [
        {
          "internalType": "string",
          "name": "s",
          "type": "string"
        }
      ],
      "name": "toUint",
      "outputs": [
        {
          "internalType": "uint256",
          "name": "",
          "type": "uint256"
        }
      ],
      "stateMutability": "pure",
      "type": "function",
      "constant": true
    }
  ],
  "bytecode": "0x608060405234801561001057600080fd5b50613644806100206000396000f3fe608060405234801561001057600080fd5b50600436106100935760003560e01c80639c9d0fad116100665780639c9d0fad14610144578063a1a63f6514610162578063a33d5f9b14610192578063b384abef146101c2578063c32a6f6d146101de57610093565b80632fadca6e146100985780634dd14be5146100c8578063702e277f146100f8578063897dbb2c14610128575b600080fd5b6100b260048036038101906100ad9190612504565b61020e565b6040516100bf919061292b565b60405180910390f35b6100e260048036038101906100dd9190612ac1565b610702565b6040516100ef9190612b2c565b60405180910390f35b610112600480360381019061010d9190612b47565b610789565b60405161011f9190612d02565b60405180910390f35b610142600480360381019061013d9190612ee6565b610e6f565b005b61014c61114d565b6040516101599190612d02565b60405180910390f35b61017c60048036038101906101779190612fff565b6116bb565b6040516101899190613058565b60405180910390f35b6101ac60048036038101906101a79190612b47565b6117c9565b6040516101b99190612d02565b60405180910390f35b6101dc60048036038101906101d79190613073565b611dad565b005b6101f860048036038101906101f391906130b3565b61205d565b604051610205919061310b565b60405180910390f35b610216612254565b600161022233846116bb565b03610637576000828154811061023b5761023a613126565b5b9060005260206000209060080201604051806101000160405290816000820154815260200160018201805461026f90613184565b80601f016020809104026020016040519081016040528092919081815260200182805461029b90613184565b80156102e85780601f106102bd576101008083540402835291602001916102e8565b820191906000526020600020905b8154815290600101906020018083116102cb57829003601f168201915b5050505050815260200160028201805461030190613184565b80601f016020809104026020016040519081016040528092919081815260200182805461032d90613184565b801561037a5780601f1061034f5761010080835404028352916020019161037a565b820191906000526020600020905b81548152906001019060200180831161035d57829003601f168201915b505050505081526020016003820160009054906101000a900473ffffffffffffffffffffffffffffffffffffffff1673ffffffffffffffffffffffffffffffffffffffff1673ffffffffffffffffffffffffffffffffffffffff16815260200160048201805480602002602001604051908101604052809291908181526020016000905b828210156104f157838290600052602060002001805480602002602001604051908101604052809291908181526020016000905b828210156104de57838290600052602060002001805461045190613184565b80601f016020809104026020016040519081016040528092919081815260200182805461047d90613184565b80156104ca5780601f1061049f576101008083540402835291602001916104ca565b820191906000526020600020905b8154815290600101906020018083116104ad57829003601f168201915b505050505081526020019060010190610432565b50505050815260200190600101906103fe565b5050505081526020016005820160009054906101000a900460ff161515151581526020016006820180548060200260200160405190810160405280929190818152602001828054801561059957602002820191906000526020600020905b8160009054906101000a900473ffffffffffffffffffffffffffffffffffffffff1673ffffffffffffffffffffffffffffffffffffffff168152602001906001019080831161054f575b505050505081526020016007820180548060200260200160405190810160405280929190818152602001828054801561062757602002820191906000526020600020905b8160009054906101000a900473ffffffffffffffffffffffffffffffffffffffff1673ffffffffffffffffffffffffffffffffffffffff16815260200190600101908083116105dd575b50505050508152505090506106fd565b606080604051806101000160405280600081526020016040518060400160405280600381526020017f343034000000000000000000000000000000000000000000000000000000000081525081526020016040518060400160405280601b81526020017f24696e7465726e616c436f6d756e69636174696f6e2066616c7365000000000081525081526020013373ffffffffffffffffffffffffffffffffffffffff16815260200182815260200160001515815260200183815260200183815250925050505b919050565b600080600090505b835181101561077d578273ffffffffffffffffffffffffffffffffffffffff1684828151811061073d5761073c613126565b5b602002602001015173ffffffffffffffffffffffffffffffffffffffff160361076a576001915050610783565b8080610775906131e4565b91505061070a565b50600090505b92915050565b60606000805b6000805490508110156108b75760001515600082815481106107b4576107b3613126565b5b906000526020600020906008020160050160009054906101000a900460ff1615151480610890575061088f600082815481106107f3576107f2613126565b5b906000526020600020906008020160060180548060200260200160405190810160405280929190818152602001828054801561088457602002820191906000526020600020905b8160009054906101000a900473ffffffffffffffffffffffffffffffffffffffff1673ffffffffffffffffffffffffffffffffffffffff168152602001906001019080831161083a575b505050505085610702565b5b156108a45781806108a0906131e4565b9250505b80806108af906131e4565b91505061078f565b5060008167ffffffffffffffff8111156108d4576108d3612952565b5b60405190808252806020026020018201604052801561090d57816020015b6108fa612254565b8152602001906001900390816108f25790505b5090506000805b600080549050811015610e6357600015156000828154811061093957610938613126565b5b906000526020600020906008020160050160009054906101000a900460ff1615151480610a155750610a146000828154811061097857610977613126565b5b9060005260206000209060080201600601805480602002602001604051908101604052809291908181526020018280548015610a0957602002820191906000526020600020905b8160009054906101000a900473ffffffffffffffffffffffffffffffffffffffff1673ffffffffffffffffffffffffffffffffffffffff16815260200190600101908083116109bf575b505050505087610702565b5b15610e505760008181548110610a2e57610a2d613126565b5b90600052602060002090600802016040518061010001604052908160008201548152602001600182018054610a6290613184565b80601f0160208091040260200160405190810160405280929190818152602001828054610a8e90613184565b8015610adb5780601f10610ab057610100808354040283529160200191610adb565b820191906000526020600020905b815481529060010190602001808311610abe57829003601f168201915b50505050508152602001600282018054610af490613184565b80601f0160208091040260200160405190810160405280929190818152602001828054610b2090613184565b8015610b6d5780601f10610b4257610100808354040283529160200191610b6d565b820191906000526020600020905b815481529060010190602001808311610b5057829003601f168201915b505050505081526020016003820160009054906101000a900473ffffffffffffffffffffffffffffffffffffffff1673ffffffffffffffffffffffffffffffffffffffff1673ffffffffffffffffffffffffffffffffffffffff16815260200160048201805480602002602001604051908101604052809291908181526020016000905b82821015610ce457838290600052602060002001805480602002602001604051908101604052809291908181526020016000905b82821015610cd1578382906000526020600020018054610c4490613184565b80601f0160208091040260200160405190810160405280929190818152602001828054610c7090613184565b8015610cbd5780601f10610c9257610100808354040283529160200191610cbd565b820191906000526020600020905b815481529060010190602001808311610ca057829003601f168201915b505050505081526020019060010190610c25565b5050505081526020019060010190610bf1565b5050505081526020016005820160009054906101000a900460ff1615151515815260200160068201805480602002602001604051908101604052809291908181526020018280548015610d8c57602002820191906000526020600020905b8160009054906101000a900473ffffffffffffffffffffffffffffffffffffffff1673ffffffffffffffffffffffffffffffffffffffff1681526020019060010190808311610d42575b5050505050815260200160078201805480602002602001604051908101604052809291908181526020018280548015610e1a57602002820191906000526020600020905b8160009054906101000a900473ffffffffffffffffffffffffffffffffffffffff1673ffffffffffffffffffffffffffffffffffffffff1681526020019060010190808311610dd0575b505050505081525050838381518110610e3657610e35613126565b5b60200260200101819052508180610e4c906131e4565b9250505b8080610e5b906131e4565b915050610914565b50819350505050919050565b6000825167ffffffffffffffff811115610e8c57610e8b612952565b5b604051908082528060200260200182016040528015610ebf57816020015b6060815260200190600190039081610eaa5790505b509050606060005b8451811015610fca576000600267ffffffffffffffff811115610eed57610eec612952565b5b604051908082528060200260200182016040528015610f2057816020015b6060815260200190600190039081610f0b5790505b509050858281518110610f3657610f35613126565b5b602002602001015181600081518110610f5257610f51613126565b5b6020026020010181905250848281518110610f7057610f6f613126565b5b602002602001015181600181518110610f8c57610f8b613126565b5b602002602001018190525080848381518110610fab57610faa613126565b5b6020026020010181905250508080610fc2906131e4565b915050610ec7565b50600060405180610100016040528060008054905081526020018a81526020018981526020013373ffffffffffffffffffffffffffffffffffffffff168152602001848152602001881515815260200187815260200183815250908060018154018082558091505060019003906000526020600020906008020160009091909190915060008201518160000155602082015181600101908161106c91906133d8565b50604082015181600201908161108291906133d8565b5060608201518160030160006101000a81548173ffffffffffffffffffffffffffffffffffffffff021916908373ffffffffffffffffffffffffffffffffffffffff16021790555060808201518160040190805190602001906110e69291906122b1565b5060a08201518160050160006101000a81548160ff02191690831515021790555060c0820151816006019080519060200190611123929190612311565b5060e0820151816007019080519060200190611140929190612311565b5050505050505050505050565b60606000805b6000805490508110156111c057600015156000828154811061117857611177613126565b5b906000526020600020906008020160050160009054906101000a900460ff161515036111ad5781806111a9906131e4565b9250505b80806111b8906131e4565b915050611153565b5060008167ffffffffffffffff8111156111dd576111dc612952565b5b60405190808252806020026020018201604052801561121657816020015b611203612254565b8152602001906001900390816111fb5790505b5090506000805b6000805490508110156116b157600015156000828154811061124257611241613126565b5b906000526020600020906008020160050160009054906101000a900460ff1615150361169e576000818154811061127c5761127b613126565b5b906000526020600020906008020160405180610100016040529081600082015481526020016001820180546112b090613184565b80601f01602080910402602001604051908101604052809291908181526020018280546112dc90613184565b80156113295780601f106112fe57610100808354040283529160200191611329565b820191906000526020600020905b81548152906001019060200180831161130c57829003601f168201915b5050505050815260200160028201805461134290613184565b80601f016020809104026020016040519081016040528092919081815260200182805461136e90613184565b80156113bb5780601f10611390576101008083540402835291602001916113bb565b820191906000526020600020905b81548152906001019060200180831161139e57829003601f168201915b505050505081526020016003820160009054906101000a900473ffffffffffffffffffffffffffffffffffffffff1673ffffffffffffffffffffffffffffffffffffffff1673ffffffffffffffffffffffffffffffffffffffff16815260200160048201805480602002602001604051908101604052809291908181526020016000905b8282101561153257838290600052602060002001805480602002602001604051908101604052809291908181526020016000905b8282101561151f57838290600052602060002001805461149290613184565b80601f01602080910402602001604051908101604052809291908181526020018280546114be90613184565b801561150b5780601f106114e05761010080835404028352916020019161150b565b820191906000526020600020905b8154815290600101906020018083116114ee57829003601f168201915b505050505081526020019060010190611473565b505050508152602001906001019061143f565b5050505081526020016005820160009054906101000a900460ff16151515158152602001600682018054806020026020016040519081016040528092919081815260200182805480156115da57602002820191906000526020600020905b8160009054906101000a900473ffffffffffffffffffffffffffffffffffffffff1673ffffffffffffffffffffffffffffffffffffffff1681526020019060010190808311611590575b505050505081526020016007820180548060200260200160405190810160405280929190818152602001828054801561166857602002820191906000526020600020905b8160009054906101000a900473ffffffffffffffffffffffffffffffffffffffff1673ffffffffffffffffffffffffffffffffffffffff168152602001906001019080831161161e575b50505050508152505083838151811061168457611683613126565b5b6020026020010181905250818061169a906131e4565b9250505b80806116a9906131e4565b91505061121d565b5081935050505090565b6000801515600083815481106116d4576116d3613126565b5b906000526020600020906008020160050160009054906101000a900460ff16151514806117b057506117af6000838154811061171357611712613126565b5b90600052602060002090600802016006018054806020026020016040519081016040528092919081815260200182805480156117a457602002820191906000526020600020905b8160009054906101000a900473ffffffffffffffffffffffffffffffffffffffff1673ffffffffffffffffffffffffffffffffffffffff168152602001906001019080831161175a575b505050505084610702565b5b156117be57600190506117c3565b600090505b92915050565b60606000805b600080549050811015611876578373ffffffffffffffffffffffffffffffffffffffff166000828154811061180757611806613126565b5b906000526020600020906008020160030160009054906101000a900473ffffffffffffffffffffffffffffffffffffffff1673ffffffffffffffffffffffffffffffffffffffff160361186357818061185f906131e4565b9250505b808061186e906131e4565b9150506117cf565b5060008167ffffffffffffffff81111561189357611892612952565b5b6040519080825280602002602001820160405280156118cc57816020015b6118b9612254565b8152602001906001900390816118b15790505b5090506000805b600080549050811015611da1578573ffffffffffffffffffffffffffffffffffffffff166000828154811061190b5761190a613126565b5b906000526020600020906008020160030160009054906101000a900473ffffffffffffffffffffffffffffffffffffffff1673ffffffffffffffffffffffffffffffffffffffff1603611d8e576000818154811061196c5761196b613126565b5b906000526020600020906008020160405180610100016040529081600082015481526020016001820180546119a090613184565b80601f01602080910402602001604051908101604052809291908181526020018280546119cc90613184565b8015611a195780601f106119ee57610100808354040283529160200191611a19565b820191906000526020600020905b8154815290600101906020018083116119fc57829003601f168201915b50505050508152602001600282018054611a3290613184565b80601f0160208091040260200160405190810160405280929190818152602001828054611a5e90613184565b8015611aab5780601f10611a8057610100808354040283529160200191611aab565b820191906000526020600020905b815481529060010190602001808311611a8e57829003601f168201915b505050505081526020016003820160009054906101000a900473ffffffffffffffffffffffffffffffffffffffff1673ffffffffffffffffffffffffffffffffffffffff1673ffffffffffffffffffffffffffffffffffffffff16815260200160048201805480602002602001604051908101604052809291908181526020016000905b82821015611c2257838290600052602060002001805480602002602001604051908101604052809291908181526020016000905b82821015611c0f578382906000526020600020018054611b8290613184565b80601f0160208091040260200160405190810160405280929190818152602001828054611bae90613184565b8015611bfb5780601f10611bd057610100808354040283529160200191611bfb565b820191906000526020600020905b815481529060010190602001808311611bde57829003601f168201915b505050505081526020019060010190611b63565b5050505081526020019060010190611b2f565b5050505081526020016005820160009054906101000a900460ff1615151515815260200160068201805480602002602001604051908101604052809291908181526020018280548015611cca57602002820191906000526020600020905b8160009054906101000a900473ffffffffffffffffffffffffffffffffffffffff1673ffffffffffffffffffffffffffffffffffffffff1681526020019060010190808311611c80575b5050505050815260200160078201805480602002602001604051908101604052809291908181526020018280548015611d5857602002820191906000526020600020905b8160009054906101000a900473ffffffffffffffffffffffffffffffffffffffff1673ffffffffffffffffffffffffffffffffffffffff1681526020019060010190808311611d0e575b505050505081525050838381518110611d7457611d73613126565b5b60200260200101819052508180611d8a906131e4565b9250505b8080611d99906131e4565b9150506118d3565b50819350505050919050565b611e6060008381548110611dc457611dc3613126565b5b9060005260206000209060080201600701805480602002602001604051908101604052809291908181526020018280548015611e5557602002820191906000526020600020905b8160009054906101000a900473ffffffffffffffffffffffffffffffffffffffff1673ffffffffffffffffffffffffffffffffffffffff1681526020019060010190808311611e0b575b505050505033610702565b6120595760008281548110611e7857611e77613126565b5b9060005260206000209060080201600701339080600181540180825580915050600190039060005260206000200160009091909190916101000a81548173ffffffffffffffffffffffffffffffffffffffff021916908373ffffffffffffffffffffffffffffffffffffffff160217905550611fed6001611fde60008581548110611f0657611f05613126565b5b90600052602060002090600802016004018481548110611f2957611f28613126565b5b90600052602060002001600181548110611f4657611f45613126565b5b906000526020600020018054611f5b90613184565b80601f0160208091040260200160405190810160405280929190818152602001828054611f8790613184565b8015611fd45780601f10611fa957610100808354040283529160200191611fd4565b820191906000526020600020905b815481529060010190602001808311611fb757829003601f168201915b505050505061205d565b611fe891906134aa565b6120f5565b6000838154811061200157612000613126565b5b9060005260206000209060080201600401828154811061202457612023613126565b5b9060005260206000200160018154811061204157612040613126565b5b90600052602060002001908161205791906133d8565b505b5050565b6000808290506000805b82518110156120ea57600083828151811061208557612084613126565b5b602001015160f81c60f81b60f81c60ff169050603081101580156120aa575060398111155b156120d6576030816120bc91906134de565b600a846120c99190613512565b6120d391906134aa565b92505b5080806120e2906131e4565b915050612067565b508092505050919050565b60606000820361213c576040518060400160405280600181526020017f3000000000000000000000000000000000000000000000000000000000000000815250905061224f565b600082905060005b6000821461216e578080612157906131e4565b915050600a826121679190613583565b9150612144565b60008167ffffffffffffffff81111561218a57612189612952565b5b6040519080825280601f01601f1916602001820160405280156121bc5781602001600182028036833780820191505090505b5090505b600085146122485781806121d3906135b4565b925050600a856121e391906135dd565b60306121ef91906134aa565b60f81b81838151811061220557612204613126565b5b60200101907effffffffffffffffffffffffffffffffffffffffffffffffffffffffffffff1916908160001a905350600a856122419190613583565b94506121c0565b8093505050505b919050565b604051806101000160405280600081526020016060815260200160608152602001600073ffffffffffffffffffffffffffffffffffffffff1681526020016060815260200160001515815260200160608152602001606081525090565b828054828255906000526020600020908101928215612300579160200282015b828111156122ff5782518290805190602001906122ef92919061239b565b50916020019190600101906122d1565b5b50905061230d91906123f4565b5090565b82805482825590600052602060002090810192821561238a579160200282015b828111156123895782518260006101000a81548173ffffffffffffffffffffffffffffffffffffffff021916908373ffffffffffffffffffffffffffffffffffffffff16021790555091602001919060010190612331565b5b5090506123979190612418565b5090565b8280548282559060005260206000209081019282156123e3579160200282015b828111156123e25782518290816123d291906133d8565b50916020019190600101906123bb565b5b5090506123f09190612435565b5090565b5b80821115612414576000818161240b9190612459565b506001016123f5565b5090565b5b80821115612431576000816000905550600101612419565b5090565b5b80821115612455576000818161244c919061247a565b50600101612436565b5090565b50805460008255906000526020600020908101906124779190612435565b50565b50805461248690613184565b6000825580601f1061249857506124b7565b601f0160209004906000526020600020908101906124b69190612418565b5b50565b6000604051905090565b600080fd5b600080fd5b6000819050919050565b6124e1816124ce565b81146124ec57600080fd5b50565b6000813590506124fe816124d8565b92915050565b60006020828403121561251a576125196124c4565b5b6000612528848285016124ef565b91505092915050565b61253a816124ce565b82525050565b600081519050919050565b600082825260208201905092915050565b60005b8381101561257a57808201518184015260208101905061255f565b60008484015250505050565b6000601f19601f8301169050919050565b60006125a282612540565b6125ac818561254b565b93506125bc81856020860161255c565b6125c581612586565b840191505092915050565b600073ffffffffffffffffffffffffffffffffffffffff82169050919050565b60006125fb826125d0565b9050919050565b61260b816125f0565b82525050565b600081519050919050565b600082825260208201905092915050565b6000819050602082019050919050565b600081519050919050565b600082825260208201905092915050565b6000819050602082019050919050565b60006126758383612597565b905092915050565b6000602082019050919050565b60006126958261263d565b61269f8185612648565b9350836020820285016126b185612659565b8060005b858110156126ed57848403895281516126ce8582612669565b94506126d98361267d565b925060208a019950506001810190506126b5565b50829750879550505050505092915050565b600061270b838361268a565b905092915050565b6000602082019050919050565b600061272b82612611565b612735818561261c565b9350836020820285016127478561262d565b8060005b85811015612783578484038952815161276485826126ff565b945061276f83612713565b925060208a0199505060018101905061274b565b50829750879550505050505092915050565b60008115159050919050565b6127aa81612795565b82525050565b600081519050919050565b600082825260208201905092915050565b6000819050602082019050919050565b60006127e88383612602565b60208301905092915050565b6000602082019050919050565b600061280c826127b0565b61281681856127bb565b9350612821836127cc565b8060005b8381101561285257815161283988826127dc565b9750612844836127f4565b925050600181019050612825565b5085935050505092915050565b6000610100830160008301516128786000860182612531565b50602083015184820360208601526128908282612597565b915050604083015184820360408601526128aa8282612597565b91505060608301516128bf6060860182612602565b50608083015184820360808601526128d78282612720565b91505060a08301516128ec60a08601826127a1565b5060c083015184820360c08601526129048282612801565b91505060e083015184820360e086015261291e8282612801565b9150508091505092915050565b60006020820190508181036000830152612945818461285f565b905092915050565b600080fd5b7f4e487b7100000000000000000000000000000000000000000000000000000000600052604160045260246000fd5b61298a82612586565b810181811067ffffffffffffffff821117156129a9576129a8612952565b5b80604052505050565b60006129bc6124ba565b90506129c88282612981565b919050565b600067ffffffffffffffff8211156129e8576129e7612952565b5b602082029050602081019050919050565b600080fd5b612a07816125f0565b8114612a1257600080fd5b50565b600081359050612a24816129fe565b92915050565b6000612a3d612a38846129cd565b6129b2565b90508083825260208201905060208402830185811115612a6057612a5f6129f9565b5b835b81811015612a895780612a758882612a15565b845260208401935050602081019050612a62565b5050509392505050565b600082601f830112612aa857612aa761294d565b5b8135612ab8848260208601612a2a565b91505092915050565b60008060408385031215612ad857612ad76124c4565b5b600083013567ffffffffffffffff811115612af657612af56124c9565b5b612b0285828601612a93565b9250506020612b1385828601612a15565b9150509250929050565b612b2681612795565b82525050565b6000602082019050612b416000830184612b1d565b92915050565b600060208284031215612b5d57612b5c6124c4565b5b6000612b6b84828501612a15565b91505092915050565b600081519050919050565b600082825260208201905092915050565b6000819050602082019050919050565b600061010083016000830151612bb96000860182612531565b5060208301518482036020860152612bd18282612597565b91505060408301518482036040860152612beb8282612597565b9150506060830151612c006060860182612602565b5060808301518482036080860152612c188282612720565b91505060a0830151612c2d60a08601826127a1565b5060c083015184820360c0860152612c458282612801565b91505060e083015184820360e0860152612c5f8282612801565b9150508091505092915050565b6000612c788383612ba0565b905092915050565b6000602082019050919050565b6000612c9882612b74565b612ca28185612b7f565b935083602082028501612cb485612b90565b8060005b85811015612cf05784840389528151612cd18582612c6c565b9450612cdc83612c80565b925060208a01995050600181019050612cb8565b50829750879550505050505092915050565b60006020820190508181036000830152612d1c8184612c8d565b905092915050565b600080fd5b600067ffffffffffffffff821115612d4457612d43612952565b5b612d4d82612586565b9050602081019050919050565b82818337600083830152505050565b6000612d7c612d7784612d29565b6129b2565b905082815260208101848484011115612d9857612d97612d24565b5b612da3848285612d5a565b509392505050565b600082601f830112612dc057612dbf61294d565b5b8135612dd0848260208601612d69565b91505092915050565b612de281612795565b8114612ded57600080fd5b50565b600081359050612dff81612dd9565b92915050565b600067ffffffffffffffff821115612e2057612e1f612952565b5b602082029050602081019050919050565b6000612e44612e3f84612e05565b6129b2565b90508083825260208201905060208402830185811115612e6757612e666129f9565b5b835b81811015612eae57803567ffffffffffffffff811115612e8c57612e8b61294d565b5b808601612e998982612dab565b85526020850194505050602081019050612e69565b5050509392505050565b600082601f830112612ecd57612ecc61294d565b5b8135612edd848260208601612e31565b91505092915050565b60008060008060008060c08789031215612f0357612f026124c4565b5b600087013567ffffffffffffffff811115612f2157612f206124c9565b5b612f2d89828a01612dab565b965050602087013567ffffffffffffffff811115612f4e57612f4d6124c9565b5b612f5a89828a01612dab565b9550506040612f6b89828a01612df0565b945050606087013567ffffffffffffffff811115612f8c57612f8b6124c9565b5b612f9889828a01612a93565b935050608087013567ffffffffffffffff811115612fb957612fb86124c9565b5b612fc589828a01612eb8565b92505060a087013567ffffffffffffffff811115612fe657612fe56124c9565b5b612ff289828a01612eb8565b9150509295509295509295565b60008060408385031215613016576130156124c4565b5b600061302485828601612a15565b9250506020613035858286016124ef565b9150509250929050565b6000819050919050565b6130528161303f565b82525050565b600060208201905061306d6000830184613049565b92915050565b6000806040838503121561308a576130896124c4565b5b6000613098858286016124ef565b92505060206130a9858286016124ef565b9150509250929050565b6000602082840312156130c9576130c86124c4565b5b600082013567ffffffffffffffff8111156130e7576130e66124c9565b5b6130f384828501612dab565b91505092915050565b613105816124ce565b82525050565b600060208201905061312060008301846130fc565b92915050565b7f4e487b7100000000000000000000000000000000000000000000000000000000600052603260045260246000fd5b7f4e487b7100000000000000000000000000000000000000000000000000000000600052602260045260246000fd5b6000600282049050600182168061319c57607f821691505b6020821081036131af576131ae613155565b5b50919050565b7f4e487b7100000000000000000000000000000000000000000000000000000000600052601160045260246000fd5b60006131ef826124ce565b91507fffffffffffffffffffffffffffffffffffffffffffffffffffffffffffffffff8203613221576132206131b5565b5b600182019050919050565b60008190508160005260206000209050919050565b60006020601f8301049050919050565b600082821b905092915050565b60006008830261328e7fffffffffffffffffffffffffffffffffffffffffffffffffffffffffffffffff82613251565b6132988683613251565b95508019841693508086168417925050509392505050565b6000819050919050565b60006132d56132d06132cb846124ce565b6132b0565b6124ce565b9050919050565b6000819050919050565b6132ef836132ba565b6133036132fb826132dc565b84845461325e565b825550505050565b600090565b61331861330b565b6133238184846132e6565b505050565b5b818110156133475761333c600082613310565b600181019050613329565b5050565b601f82111561338c5761335d8161322c565b61336684613241565b81016020851015613375578190505b61338961338185613241565b830182613328565b50505b505050565b600082821c905092915050565b60006133af60001984600802613391565b1980831691505092915050565b60006133c8838361339e565b9150826002028217905092915050565b6133e182612540565b67ffffffffffffffff8111156133fa576133f9612952565b5b6134048254613184565b61340f82828561334b565b600060209050601f8311600181146134425760008415613430578287015190505b61343a85826133bc565b8655506134a2565b601f1984166134508661322c565b60005b8281101561347857848901518255600182019150602085019450602081019050613453565b868310156134955784890151613491601f89168261339e565b8355505b6001600288020188555050505b505050505050565b60006134b5826124ce565b91506134c0836124ce565b92508282019050808211156134d8576134d76131b5565b5b92915050565b60006134e9826124ce565b91506134f4836124ce565b925082820390508181111561350c5761350b6131b5565b5b92915050565b600061351d826124ce565b9150613528836124ce565b9250828202613536816124ce565b9150828204841483151761354d5761354c6131b5565b5b5092915050565b7f4e487b7100000000000000000000000000000000000000000000000000000000600052601260045260246000fd5b600061358e826124ce565b9150613599836124ce565b9250826135a9576135a8613554565b5b828204905092915050565b60006135bf826124ce565b9150600082036135d2576135d16131b5565b5b600182039050919050565b60006135e8826124ce565b91506135f3836124ce565b92508261360357613602613554565b5b82820690509291505056fea2646970667358221220ce9242f791c1a0ec8dc98690679c61940e8a271e88cfb6cda5e56cfa4595a51c64736f6c63430008130033",
  "immutableReferences": {},
  "source": "// SPDX-License-Identifier: MIT\npragma solidity ^0.8.19;\n\n\ncontract ovote {\n  // make an object for surveys \n  struct survey {\n    uint id;\n    string title;\n    string description;\n    address owner;\n    string[][] answers;\n    bool whiteListed;\n    address[] whiteListedAddrs;\n    address[] voted;\n  }\n\n  // main array for all surveys\n  survey[] private allSurveys;\n\n  // a function for appending surveys to main array\n  function appendSurvey(string memory _title, string memory _description, bool _whiteListed, address[] memory _whiteListedAddrs, string[] memory _anstitle, string[] memory _voteN) public {\n    string[][] memory _answers = new string[][](_anstitle.length);\n    address[] memory emptyArr;\n\n    for (uint i = 0; i < _anstitle.length; i++){\n      string[] memory _ans = new string[](2);\n      _ans[0] = _anstitle[i]; _ans[1] = _voteN[i];\n      _answers[i] = _ans;\n    }\n\n    allSurveys.push(survey(allSurveys.length, _title, _description, msg.sender, _answers, _whiteListed, _whiteListedAddrs, emptyArr));\n  }\n\n  // a function for rendering main page (public user)\n  function viewSurveys() public view returns (survey[] memory) {\n    uint publicSurveysN = 0;\n\n    for (uint i = 0; i < allSurveys.length; i++){\n      if (allSurveys[i].whiteListed == false){\n        publicSurveysN++;\n      }\n    }\n\n    survey[] memory render_surveys = new survey[](publicSurveysN);\n    uint j = 0;\n\n    for (uint i = 0; i < allSurveys.length; i++){\n      if (allSurveys[i].whiteListed == false){\n        render_surveys[j] = allSurveys[i];\n        j++;\n      }\n    }\n\n    return render_surveys;\n  }\n\n  // a function for rendering main page (logined user)\n  function viewSurveysByAddr(address _user) public view returns (survey[] memory){\n    uint alowedSurveys = 0;\n\n    for (uint i = 0; i < allSurveys.length; i++){\n      if (allSurveys[i].whiteListed == false || isIn(allSurveys[i].whiteListedAddrs, _user)){\n        alowedSurveys++;\n      }\n    }\n\n    survey[] memory render_surveys = new survey[](alowedSurveys);\n    uint j = 0;\n\n    for (uint i = 0; i < allSurveys.length; i++){\n      if (allSurveys[i].whiteListed == false || isIn(allSurveys[i].whiteListedAddrs, _user)){\n        render_surveys[j] = allSurveys[i];\n        j++;\n      }\n    }\n\n    return render_surveys;\n  }\n\n  // a function for rendering dashboard\n  function viewSurveysByOwner(address _owner) public view returns (survey[] memory){\n    uint alowedSurveys = 0;\n\n    for (uint i = 0; i < allSurveys.length; i++){\n      if (allSurveys[i].owner == _owner){\n        alowedSurveys++;\n      }\n    }\n\n    survey[] memory render_surveys = new survey[](alowedSurveys);\n    uint j = 0;\n\n    for (uint i = 0; i < allSurveys.length; i++){\n      if (allSurveys[i].owner == _owner){\n        render_surveys[j] = allSurveys[i];\n        j++;\n      }\n    }\n\n    return render_surveys;\n  }\n\n  // a function for rendering a specified survey \n  function viewSurveyByID(uint _id) public view returns (survey memory){\n    if (checkPermission(msg.sender, _id) == 1){\n      return allSurveys[_id];\n    }\n\n    address[] memory emptyArr;\n    string[][] memory semptyArr;\n    return survey(0, '404', '$internalComunication false', msg.sender, semptyArr, false, emptyArr, emptyArr);\n  }\n\n  function checkPermission(address _user, uint _survey) public view returns (int){\n    if (allSurveys[_survey].whiteListed == false || isIn(allSurveys[_survey].whiteListedAddrs, _user)){\n      return 1;\n    }\n    else{\n      return 0;\n    }\n  }\n  \n  // a function for voting surveys\n  function vote(uint _id, uint _ansId) public {\n    // if not in votted\n    if(!isIn(allSurveys[_id].voted, msg.sender)){\n      allSurveys[_id].voted.push(msg.sender);\n      allSurveys[_id].answers[_ansId][1] = toString(toUint(allSurveys[_id].answers[_ansId][1]) + 1);\n    }\n  }\n\n  // utility functions :\n  \n  function isIn(address[] memory _users, address _user) public pure returns(bool) {\n    for (uint i = 0; i < _users.length; i++){\n      if (_users[i] == _user){\n        return true;\n      }\n    }\n    return false;\n  }\n\n  function toString(uint256 value) internal pure returns (string memory) {\n    if (value == 0) {\n        return \"0\";\n    }\n\n    uint256 temp = value;\n    uint256 digits;\n\n    while (temp != 0) {\n        digits++;\n        temp /= 10;\n    }\n\n    bytes memory buffer = new bytes(digits);\n\n    while (value != 0) {\n        digits--;\n        buffer[digits] = bytes1(uint8(48 + (value % 10)));\n        value /= 10;\n    }\n\n    return string(buffer);\n  }\n\n  function toUint(string memory s) public pure returns (uint) {\n    bytes memory b = bytes(s);\n    uint result = 0;\n    for (uint256 i = 0; i < b.length; i++) {\n        uint256 c = uint256(uint8(b[i]));\n        if (c >= 48 && c <= 57) {\n            result = result * 10 + (c - 48);\n        }\n    }\n    return result;\n  }\n}\n",
  "sourcePath": "/Users/hossein/code/ovote/model/contracts/ovote.sol",
  "compiler": {
    "name": "solc",
    "version": "0.8.19+commit.7dd6d404.Emscripten.clang"
  },
  "schemaVersion": "3.4.16",
  "updatedAt": "2025-02-28T17:00:39.726Z",
  "networkType": "ethereum",
  "devdoc": {
    "kind": "dev",
    "methods": {},
    "version": 1
  },
  "userdoc": {
    "kind": "user",
    "methods": {},
    "version": 1
  }
}